:0300000002540B9C
:10540B0078FFE4F6D8FD9000007F007E04E4F0A363
:0D541B00DFFCDEFA75080075812302546382
:10582800125D97126DEF5032C2AF758A42000000C8
:0F5838000075D905000000007587010000000011
:1058470075D903900078741EF0900078E014F0701A
:07585700F8758A4143D904F2
:10585E00D2AF0000127876400512784C50BF127805
:10586E00765034C20912785E127062127089122F4D
:10587E004B127293126001121752127764EF4E7030
:10588E0016127752EF4E700F126726125E6912567D
:10589E006D1274D212280F127787126C801260C9A3
:0958AE00126C1912175202582B5A
:106F4400D281E4FDEDC39410748094805014EF1347
:106F54009283EEC313FEEF13FFD2820000C2820DB0
:086F640080E2C283C282C281F7
:016F6C002202
:107477007F337EBC126F44000000007E777F791255
:067487006F44000000004C
:01748D0022DC
:07778F007F697E77026F4461
:077796007F797E77026F444A
:1046CB0077126B5B1E5D7D137F5F3F7C657A6D2D73
:1046DB00EE48D6DA78BABEC8FEFA77246B6D3C5D2D
:1046EB005F647F7D00030E0B001830041F00001465
:1046FB001B0000040F0000141700000A110000003B
:10470B0000091A0000091B0000091A0000021F0013
:10471B00000B0E0000070F00000B0F0000091B0021
:10472B0000091B0000000A0000000A0000091B0022
:10473B0000070F00000B0F00000B0F0000000A001A
:10474B0000091A00000B0F0000021F0000021F00DF
:10475B0000021F0000091B0000091A00000B0F00CC
:10476B0000000A0000091A0000000A00000B0F00ED
:10477B0000091B0000091A00000B0F0000021F00AC
:0B478B0000000A0000021F00000B0FDE
:0B40FA009000A6EBF0A3EAF0A3E9F0B1
:104105001277AB9000A9EBF0A3EAF0A3E9F09000D9
:10411500A6E0FBA3E0FAA3E0F91204F91313540196
:104125007021900143E04440F09000A9E0FBA3E03A
:10413500FAA3E0F99000021205129000B0F0900089
:1041450001801F900142E04420F09000A9E0FBA30C
:10415500E0FAA3E0F99000011205129000B0F0908A
:1041650000021205129000B1F09000B0E0FF7E0051
:104175007B017A0079AC124AAB90014CE0FF9000CC
:10418500ADE09046EF93FEEF4E90014CF090014B61
:10419500E0FF9000ACE09046DB93FEEF4E90014BC4
:1041A500F09000B1E0FF7E007B017A0079AC124A05
:1041B500AB9000ADE0FF601190014AE0FEEF904644
:1041C500DB93FFEE4F90014AF0900149E0FF90002C
:0D41D500ACE09046DB93FEEF4E900149F008
:0141E20022BA
:0B618E00EBF0A3EAF0A3E9F01272EBC3
:10619900127852EF14601A14601F146029146033C6
:1061A9002404704090013AE0445AF0A3E04458F0C6
:1061B9002290013AE0444E800690013AE0444CF0C6
:1061C900A3E04434F02290013AE0444CF0A3E044C7
:1061D90035F022900139E04440F0A3E0444CF0A3AB
:0561E900E044B7F022C4
:086D1000E0FBA3E0FAA3E0F9A7
:106D180090003512051214600C14601124027014CE
:106D2800900139800B900139E04402F02290013A39
:056D3800E04401F0221F
:0D76BA0012787C5007900139E04480F022E6
:1073AA001204F924FE600B04700F900140E044407F
:0A73BA00F022900140E04480F02230
:106BE500300D30900133E014601214601714601CEE
:106BF5002403701F90013EE04404F02290013EE022
:106C05004408F02290013EE04401F02290013EE06C
:046C15004402F02223
:0B34F400900098EBF0A3EAF0A3E9F0D1
:1034FF00C207C208C209300F02C322ED24FE604A80
:10350F00046003023599900098E0FBA3E0FAA3E072
:10351F00240CF9E43AFA900134E075F002A4F58234
:10352F0085F0831206A6FFAEF0D39458EE64809414
:10353F00824005D2080235D7C3EF9470EE648094B1
:10354F007E40030235D7D209807E900098E0FBA31E
:10355F00E0FAA3E02412F9E43AFA900134E075F0AE
:10356F0002A4F58285F0831206A6FFAEF0D394581D
:10357F00EE648094824004D208804DC3EF9470EEC5
:10358F006480947E5042D209803E900098E0FBA365
:10359F00E0FAA3E02406F9E43AFA900134E075F07A
:1035AF0002A4F58285F0831206A6FFAEF0D39458DD
:1035BF00EE648094824004D208800DC3EF9470EEC5
:1035CF006480947E5002D20930081690013DE04489
:1035DF003EF090013CE0443EF090013FE0443E80DD
:1035EF001730091A90013DE04464F090013CE0442B
:1035FF0064F090013FE04464F04480F0D207A207EA
:01360F002298
:0B503600900098EBF0A3EAF0A3E9F073
:10504100E4A3F090009BE0FFC3940374809480502C
:10505100587E007401A807088005C333CE33CED82B
:10506100F9FF90012FE0FDEF5D7036900098E0FBB5
:10507100A3E0FAA3E0F9A3E0F5827583001205121B
:10508100F4601E90009BE0FF900134F090012FE04E
:10509100FEA8077401088002C333D8FC4E90012F8B
:1050A100F090009BE004F0809A900140E04402F00F
:1050B100A3E0FF900134E09046CC93FEEF4E9001C7
:1050C10041F012775BEF4E7006127834EF600A30D0
:0950D1000E07900141E04480F05B
:0150DA0022B3
:0B2CEF00900098EBF0A3EAF0A3E9F0DE
:102CFA00127870920790009BE0FBA3E0FAA3E0F938
:102D0A001204F924FE6045046003022D9590009890
:102D1A00E0FBA3E0FAA3E0200704240C8002241EAF
:102D2A00F9E43AFA900134E075F002A4F58285F0EC
:102D3A00831206A6FF9000A4E5F0F0A3EFF090003E
:102D4A0098E0FBA3E0FAA3E0242D807C900098E0B1
:102D5A00FBA3E0FAA3E0200704241280022424F94A
:102D6A00E43AFA900134E075F002A4F58285F08322
:102D7A001206A6FF9000A4E5F0F0A3EFF0900098E9
:102D8A00E0FBA3E0FAA3E02430803D900098E0FB4A
:102D9A00A3E0FAA3E0200704240680022418F9E439
:102DAA003AFA900134E075F002A4F58285F08312B4
:102DBA0006A6FF9000A4E5F0F0A3EFF0900098E0DB
:102DCA00FBA3E0FAA3E0242AF9E43AFA900134E0FA
:102DDA007E0029F9EE3AFA1204F9FF9000A6EEF005
:102DEA00A3EFF09000A4E0F9A3E0FF90009EE0FBBF
:102DFA00A3E0FAA3E0C98FF01207169000A6E0F943
:102E0A00A3E0FF9000A1E0FBA3E0FAA3E0C98FF0E2
:032E1A0002071696
:0831950090009BECF0A3EDF0AB
:10319D00900134E0F582758300120512F4701690DB
:1031AD00013DE04408F090013CE04408F090013FFF
:1031BD00E04408F022127816EF64097002D20F3045
:1031CD000F0302327590009BE0FCA3E0FDEC30E7AD
:1031DD001A90013EE04480F0EDF4FFECF4FEEF2494
:1031ED0001FFE43E90009BF0A3EFF090009BE0FE0A
:1031FD00A3E0FF7B017A00799F124AAB9000A2E019
:10320D0070159000A1E0FF602390013DE0FEEF906E
:10321D0046CB93FFEE801090013DE04480FFF0908F
:10322D0000A1E09046CB934F90013DF090013CE022
:10323D00FF9000A0E09046CB93FEEF4E90013CF046
:10324D0090013FE0FF90009FE09046CB93FEEF4E44
:10325D0090013FF04480F0127870900140E04004FE
:10326D004414F022440CF02290009DE0FEA3E0FFF8
:10327D007B017A00799F124AAB90013DE0FF9000EF
:10328D00A0E09046CB93FEEF4E90013DF090013CB7
:10329D00E0FF90009FE09046CB93FEEF4E90013CF7
:0832AD00F0900140E04420F024
:0132B50022F6
:1073C40012786D4013900146E04408F0A3E04408AD
:0A73D400F0A3E04408F0D322C32226
:1073DE001204F924FE600B04700F900145E0444046
:0A73EE00F022900145E04480F022F7
:10453000C207C208C209300F02C3221204F924FEC6
:10454000603204705E90009BE0FBA3E0FAA3E0F908
:104550009000021206A6FFAEF0D39458EE64809449
:10456000824002D208C3EF949CEE6480947F505D39
:10457000D209805990009BE0FBA3E0FAA3E0F990F8
:1045800000041206A6FFAEF0D39458EE6480948225
:104590004002D208C3EF949CEE6480947F502ED2E8
:1045A00009802A90009BE0FBA3E0FAA3E0F9120641
:1045B0007BFFAEF0D39458EE648094824002D20820
:1045C000C3EF949CEE6480947F5002D209300812AD
:1045D000900146E0443EF0A3E0443EF0A3E0443EB8
:1045E0008013300916900146E04464F0A3E044646F
:0D45F000F0A3E04464F04480F0D207A2077D
:0145FD00229B
:0B3C3F00900098EBF0A3EAF0A3E9F07E
:103C4A001278709207900098E0FBA3E0FAA3E0F9DB
:103C5A001204F924FE603604706690009BE0FBA310
:103C6A00E0FAA3E0F920070590000280039000081B
:103C7A001206A6FF9000A4E5F0F0A3EFF090009BD7
:103C8A00E0FBA3E0FAA3E0F990000E806490009BA9
:103C9A00E0FBA3E0FAA3E0F9200705900004800303
:103CAA0090000A1206A6FF9000A4E5F0F0A3EFF038
:103CBA0090009BE0FBA3E0FAA3E0F99000108031AA
:103CCA0090009BE0FBA3E0FAA3E0F92007051206A7
:103CDA007B80069000061206A6FF9000A4E5F0F08D
:103CEA00A3EFF090009BE0FBA3E0FAA3E0F99000B9
:103CFA000C1206A6FF9000A6E5F0F0A3EFF09000E4
:103D0A00A4E0F9A3E0FF90009EE0FBA3E0FAA3E0A1
:103D1A00C98FF01207169000A6E0F9A3E0FF900001
:0E3D2A00A1E0FBA3E0FAA3E0C98FF0020716A8
:0E3A4500900098EEF0A3EFF0A3ECF0A3EDF0EC
:103A5300127816EF64097002C20F300F03023B04A1
:103A6300900098E0FCA3E0FDEC30E71A900147E0FA
:103A73004480F0EDF4FFECF4FEEF2401FFE43E900C
:103A83000098F0A3EFF0900098E0FEA3E0FF7B0125
:103A93007A00799C124AAB90009FE0701590009ECB
:103AA300E0FF6023900146E0FEEF9046CB93FFEEEC
:103AB3008010900146E04480FFF090009EE0904625
:103AC300CB934F900146F0900147E0FF90009DE0BB
:103AD3009046CB93FEEF4E900147F0A3E0FF90009A
:103AE3009CE09046CB93FEEF4E900148F04480F06B
:103AF300127870900144E0400444A0F0224460F046
:103B03002290009AE0FEA3E0FF7B017A00799C12E9
:103B13004AAB900146E0FF90009EE09046CB93FEB7
:103B2300EF4E900146F0A3E0FF90009DE09046CB5E
:0F3B330093FEEF4E900147F0900145E04420F0E3
:013B42002260
:10642300300C511204F9C313540190014C7018E05D
:10643300FF9046F1E493FEEF4E90014CF090014B38
:10644300E0FF9046DF8016E0FF9046F0E493FEEF16
:106453004E90014CF090014BE0FF9046DDE493FE3B
:10646300EF4E90014BF090014AE0447CF0900149DB
:05647300E04414F022DA
:0B2BBE009000A4EBF0A3EAF0A3E9F004
:102BC90090014BE04401F0127816EF6401600302B2
:102BD9002CEE200C1A9000AAE0FBA3E0FAA3E0F97E
:102BE9001204F9131313540164016003022CA99010
:102BF90000A7E0FBA3E0FAA3E0F91204F9C3135418
:102C09000170339000A4E0FBA3E0FAA3E0F990007F
:102C190005120512FF7E007B017A0079AD124AABDD
:102C290090014CE0FF9000AEE09046EF93FEEF4E2E
:102C390090014CF080569000A4E0FBA3E0FAA3E0D9
:102C4900F9900005120512FF125BCF7E007B017A15
:102C59000079AD124AAB9000AEE0601190014CE0F2
:102C6900FF9046F0E493FEEF4E90014CF09000A7E0
:102C7900E0FBA3E0FAA3E0F91204F9540190014C36
:102C89007006E04410F08004E04420F090014BE02D
:102C9900FF9000ADE09046DB93FEEF4E90014BF0C4
:102CA9009000A4E0FBA3E0FAA3E0F9900004120568
:102CB90012FF7E007B017A0079AD124AAB90014A7E
:102CC900E0FF9000AEE09046DB93FEEF4E90014AA4
:102CD900F0900149E0FF9000ADE09046DB93FEEFF4
:052CE9004E900149F0CE
:012CEE0022C3
:0B2E1D009000A4EBF0A3EAF0A3E9F0A2
:102E280090014BE04401F0127816EF64026003024F
:102E38002F4A9000A7E0FBA3E0FAA3E0F91204F9F7
:102E4800C313540170339000A4E0FBA3E0FAA3E09D
:102E5800F9900005120512FF7E007B017A0079AD1A
:102E6800124AAB90014CE0FF9000AEE09046EF9321
:102E7800FEEF4E90014CF080569000A4E0FBA3E0DA
:102E8800FAA3E0F9900005120512FF125BCF7E004D
:102E98007B017A0079AD124AAB9000AEE0601190E8
:102EA800014CE0FF9046F0E493FEEF4E90014CF0A9
:102EB8009000A7E0FBA3E0FAA3E0F91204F954019B
:102EC80090014C7006E04410F08004E04420F0903B
:102ED800014BE0FF9000ADE09046DB93FEEF4E9093
:102EE800014BF0200C179000AAE0FBA3E0FAA3E046
:102EF800F91204F91313135401640170459000A4E6
:102F0800E0FBA3E0FAA3E0F9900004120512FF7EAB
:102F1800007B017A0079AD124AAB90014AE0FF903C
:102F280000AEE09046DB93FEEF4E90014AF0900130
:102F380049E0FF9000ADE09046DB93FEEF4E900134
:022F480049F04E
:012F4A002264
:0B33D7009000A4EBF0A3EAF0A3E9F0E3
:1033E20090014BE04401F0127816EF640260030290
:1033F20034F3200C1A9000A7E0FBA3E0FAA3E0F953
:103402001204F913131354016401600302349090FF
:1034120000A4E0FBA3E0FAA3E0F91204F9C31354F9
:10342200017020900006120512FF7E007B017A00D7
:1034320079AA124AAB90014CE0FF9000ABE09046B3
:10344200EF802F9000A4E0FBA3E0FAA3E0F9900044
:1034520006120512FF125BCF7E007B017A0079AA69
:10346200124AAB9000ABE0601190014CE0FF904635
:10347200F0E493FEEF4E90014CF090014BE0FF9090
:1034820000AAE09046DB93FEEF4E90014BF09000D5
:10349200A4E0FBA3E0FAA3E0F91204F9FFC313547A
:1034A2000164017012EF540190014C7006E0441067
:1034B200F08004E04420F0900005120512FF7E0027
:1034C2007B017A0079AA124AAB90014AE0FF900090
:1034D200ABE09046DB93FEEF4E90014AF09001493B
:1034E200E0FF9000AAE09046DB93FEEF4E90014988
:0134F200F0E9
:0134F30022B6
:0B3072009000A4EBF0A3EAF0A3E9F04B
:10307D0090014BE04401F0127816EF6403600302F7
:10308D0031949000A4E0FBA3E0FAA3E0F91204F957
:10309D00C31354017028900006120512FF7E007BA9
:1030AD00017A0079AA124AAB90014CE0FF9000AB77
:1030BD00E09046EF93FEEF4E90014CF0805690005D
:1030CD00A4E0FBA3E0FAA3E0F9900006120512FFBD
:1030DD00125BCF7E007B017A0079AA124AAB900079
:1030ED00ABE0601190014CE0FF9046F0E493FEEFF1
:1030FD004E90014CF09000A4E0FBA3E0FAA3E0F9A0
:10310D001204F9540190014C7006E04410F0800453
:10311D00E04420F090014BE0FF9000AAE09046DBE8
:10312D0093FEEF4E90014BF0200C179000A7E0FBA3
:10313D00A3E0FAA3E0F91204F91313135401640187
:10314D0070459000A4E0FBA3E0FAA3E0F990000520
:10315D00120512FF7E007B017A0079AA124AAB900C
:10316D00014AE0FF9000ABE09046DB93FEEF4E90FE
:10317D00014AF0900149E0FF9000AAE09046DB93F0
:07318D00FEEF4E900149F036
:013194002218
:0B36100090009EE0FBA3E0FAA3E0F9AD
:0B361B009000A4EBF0A3EAF0A3E9F09C
:10362600127816EF6409600B127816EF640A6003CD
:103636000237249000A4E0FBA3E0FAA3E0F9120409
:10364600F9C31354017028900006120512FF7E007C
:103656007B017A0079A7124AAB90014CE0FF9000FB
:10366600A8E09046EF93FEEF4E90014CF080569006
:1036760000A4E0FBA3E0FAA3E0F99000061205120D
:10368600FF125BCF7E007B017A0079A7124AAB90CE
:1036960000A8E0601190014CE0FF9046F0E493FE34
:1036A600EF4E90014CF09000A4E0FBA3E0FAA3E0FB
:1036B600F91204F9540190014C7006E04410F080B0
:1036C60004E04420F090014BE0FF9000A7E0904614
:1036D600DB93FEEF4E90014BF09000A4E0FBA3E0DD
:1036E600FAA3E0F9900005120512FF7E007B017A2D
:1036F6000079A7124AAB90014AE0FF9000A8E0903B
:1037060046DB93FEEF4E90014AF0900149E0FF90B0
:0E37160000A7E09046DB93FEEF4E900149F0D5
:013724002282
:0B4D97009000A4EBF0A3EAF0A3E9F009
:104DA200900145E04406F0900144E0440DF090018A
:104DB20043E0440FF0900142E04407F0200C1790CA
:104DC20000A7E0FBA3E0FAA3E0F91204F91313131E
:104DD20054016401706790014CE0FF9046F1E49346
:104DE200FEEF4E90014CF090014BE0FF9046DBE469
:104DF20093FEEF4E90014BF09000A4E0FBA3E0FA8B
:104E0200A3E0F9900009120512FF7E007B017A00EF
:104E120079AA124AAB90014AE0FF9000ABE09046BB
:104E2200DB93FEEF4E90014AF0900149E0FF9000C3
:0D4E3200AAE09046DB93FEEF4E900149F0A0
:014E3F002250
:075A53001205129000ADF0F6
:105A5A003009389000ACE0FF7E007B017A0079AE15
:105A6A00124AAB90014CE0FF9000AFE09046EF93F2
:105A7A00FEEF4E90014CF090014BE0FF9000AEE03B
:105A8A009046DB93FEEF4E90014BF0300A3C9000BB
:105A9A00ADE0FF7E007B017A0079AE124AAB90003E
:105AAA00AFE0FF601190014AE0FEEF9046DB93FF02
:105ABA00EE4F90014AF0900149E0FF9000AEE0906D
:0A5ACA0046DB93FEEF4E900149F019
:015AD40022AF
:10485E009000A1E0F9A3E0FAA3E09000A9C9F0A3AB
:10486E00EAF0A3E9F090009EE0FBA3E0FAA3E0F9E2
:0B487E009000A6EBF0A3EAF0A3E9F025
:10488900C207C2081204F9FF131354016003024955
:1048990023127816EF64057005300C028000900130
:1048A90043E04440F0127816EF6407701F200C189B
:1048B9009000A9E0FBA3E0FAA3E0F91204F9FF13C1
:1048C9001313540164017006D2078002D2071278CB
:1048D90016EF6406701F200C189000A9E0FBA3E0F6
:1048E900FAA3E0F91204F9FF1313135401640170D8
:1048F90006D2088002D208A20792099000A6E0FB1E
:10490900A3E0FAA3E0F99000071205129000ACF0B9
:0A491900A208920A900008125A53F7
:014923002271
:104796009000A1E0F9A3E0FAA3E09000A9C9F0A374
:1047A600EAF0A3E9F090009EE0FBA3E0FAA3E0F9AB
:0B47B6009000A6EBF0A3EAF0A3E9F0EE
:1047C100C207C2081204F9FF131354016401600304
:1047D10002485D127816EF64057005300C02800006
:1047E100900142E04420F0127816EF6406701F2019
:1047F1000C189000A9E0FBA3E0FAA3E0F91204F978
:10480100FF131313540164017006D2078002D2070B
:10481100127816EF6407701F200C189000A9E0FBB6
:10482100A3E0FAA3E0F91204F9FF1313135401648E
:10483100017006D2088002D208A20792099000A650
:10484100E0FBA3E0FAA3E0F9900008120512900042
:0C485100ACF0A208920A900007125A5323
:01485D002238
:0B5541009000A4EBF0A3EAF0A3E9F057
:10554C00A37401F0A37401F0A37435F0300C7B90BC
:10555C0000A4E0FBA3E0FAA3E0F99000011205120D
:10556C0025E025E024F6F582E43446F5831208BAEA
:10557C009000A7E0FBA3E0FAA3E0F91208A09001C9
:10558C0044E0FF9000A7E0FBA3E0FAA3E0F91204CB
:10559C00F9FEEF4E900144F0A3E0FF9000011205DC
:1055AC0012FEEF4E900145F0900142E0FF90000298
:1055BC00120512FEEF4E900142F0A3E0FF900003A3
:0A55CC00120512FEEF4E900143F0AD
:0155D60022B2
:106B0E00900140E054EBF054F3F0900144E0545FF8
:106B1E00F0549FF0300C1E127870900140E0400B44
:106B2E004414F0900144E044A0F022440CF0900193
:066B3E0044E04460F02277
:1064C9009000A6EBF0A3EAF0A3E9F0127752EF4EA1
:1064D9006003300C3A9000A6E0FBA3E0FAA3E0F9D0
:1064E9009000021205121460121460171460192426
:1064F90003701C900149E04401F022900142E044FC
:1065090040F0229001428003900143E04480F02250
:106CB200300C2C120003EF6401700F90014AE04483
:106CC200EEF0900149E044ECF02290014BE044EEFA
:106CD200F090014AE044B4F0900149E044B4F0225B
:10630D009000A6EBF0A3EAF0A3E9F0120003EF640E
:10631D000170499000A6E0FBA3E0FAA3E0F9120694
:10632D007BFDACF0ECC313ED1330E011300E2D906E
:10633D000142E04410F0EC30E022A3801B900142BA
:10634D00E04410F012067BAEF07803CEC313CE13EB
:0D635D00D8F930E007900143E04420F02221
:0B4EE9009000A6EBF0A3EAF0A3E9F0B4
:104EF400A37401F0A37401F0A37435F09000A6E04C
:104F0400FBA3E0FAA3E0F990000112051275F01C6E
:104F1400A4240AF582E43447F583C083C082900058
:104F240003120512D082D08375F0041208D6120839
:104F3400BA9000A9E0FBA3E0FAA3E0F91208A0905C
:104F44000144E0FF9000A9E0FBA3E0FAA3E0F9121A
:104F540004F9FEEF4E900144F0A3E0FF900001122B
:104F64000512FEEF4E900145F0900142E0FF9000E3
:104F740002120512FEEF4E900142F0A3E0FF9000F2
:0B4F840003120512FEEF4E900143F0F7
:014F8F0022FF
:0B4924009000A6EBF0A3EAF0A3E9F07E
:10492F007A017935A37401F0A37401F0A37435F003
:10493F001277AB9000ACEBF0A3EAF0A3E9F0900094
:10494F00A6E0FBA3E0FAA3E0F990000112051275AF
:10495F00F01CA4240AF582E43447F583C083C08297
:10496F009000ACE0FBA3E0FAA3E0F990000312057E
:10497F0012D082D08375F0041208D61208BA9000B4
:10498F00A9E0FBA3E0FAA3E0F91208A0900144E02C
:10499F00FF9000A9E0FBA3E0FAA3E0F91204F9FEEF
:1049AF00EF4E900144F0A3E0FF900001120512FEBC
:1049BF00EF4E900145F0900142E0FF90000212058A
:1049CF0012FEEF4E900142F0A3E0FF90000312059C
:0849DF0012FEEF4E900143F0BF
:0149E70022AD
:0B400D009000A6EFF0A3EDF0A3EBF095
:10401800127810EF70679000A8E070229000A6E078
:10402800FF7E007B017A0079AA124AAB90014CE02E
:10403800FF9000ABE09046EF93FEEF4E8063900058
:10404800A6E0FF125BCF7E007B017A0079AA124AB4
:10405800AB9000ABE0601190014CE0FF9046F0E4BB
:1040680093FEEF4E90014CF09000A9E090014C7047
:1040780006E04410F0802EE04420F080289000A64E
:10408800E0FF7E007B017A0079AA124AAB9000AB70
:10409800E0FF601190014CE0FEEF9046EF93FFEED9
:1040A8004F90014CF090014BE0FF9000AAE0904641
:1040B800DB93FEEF4E90014BF09000A7E0FF7E00EF
:1040C8007B017A0079AA124AAB90014AE0FF90007E
:1040D800ABE09046DB93FEEF4E90014AF090014929
:1040E800E0FF9000AAE09046DB93FEEF4E90014976
:0140F800F0D7
:0140F90022A4
:0820DB00E0FBA3E0FAA3E0F929
:0B20E300900098EBF0A3EAF0A3E9F0F6
:1020EE001277EA9000A3EBF0A3EAF0A3E9F01277DF
:1020FE0052EF4E600302226490009EE0FBA3E0FAD2
:10210E00A3E0F912630D127840EF700E90009BE081
:10211E00FBA3E0FAA3E0F91264C9900098E0FBA3D8
:10212E00E0FAA3E0F91204F954016401701A12776F
:10213E0064EF4E7007127776EF4E6005300E098011
:10214E000090014AE04401F0127810EF1460391447
:10215E0070030221FC2402600302223C300E079021
:10216E00014BE04401F090009BE0FBA3E0FAA3E0FA
:10217E00F99000061205129000A1F09000051205CC
:10218E00129000A2F002223C127828EF70449000C8
:10219E00A3E0F9A3E0FAA3E09000A9C9F0A3EAF046
:1021AE00A3E9F090009B1248769000A3E0F9A3E01B
:1021BE00FAA3E09000A9C9F0A3EAF0A3E9F0900019
:1021CE009B1247AE90009BE0FBA3E0FAA3E0F9025E
:1021DE004EE990009BE0FBA3E0FAA3E0F91240FA6F
:1021EE0090009BE0FBA3E0FAA3E0F90249249000E3
:1021FE0098E0FBA3E0FAA3E0F99000051205129017
:10220E0000A1F09000041205129000A2F09001457A
:10221E00E0440FF0900144E04415F0900143E04497
:10222E001AF0900142E0F090014BE04401F0900072
:10223E00A2E0FD90009BE0FBA3E0FAA3E0F91204FC
:10224E00F9FEC3135401FBEE54019000A9F0900067
:06225E00A1E0FF12400D9B
:012264002257
:08133D00E0FBA3E0FAA3E0F9D4
:0B134500900098EBF0A3EAF0A3E9F0A1
:101350001277EA9000A1EBF0A3EAF0A3E9F012778C
:1013600052EF4E7003021549900142E04410F09094
:101370000098E0FBA3E0FAA3E0F912067BAEF07858
:1013800003CEC313CE13D8F930E007900143E044F5
:1013900020F090009BE0FBA3E0FAA3E0F91204F92F
:1013A00054016401700790014AE04401F012781082
:1013B000EF64026003021450900145E0440FF09086
:1013C0000144E04415F0900143E0441AF0900142DA
:1013D000E0F0127816EF24FE603E04600302154927
:1013E00090009EE0F9A3E0FAA3E09000A7C9F0A363
:1013F000EAF0A3E9F09000A1E0F9A3E0FAA3E090FD
:1014000000AAC9F0A3EAF0A3E9F090009BE0FBA3D7
:10141000E0FAA3E0F9022BBE90009EE0F9A3E0FA07
:10142000A3E09000A7C9F0A3EAF0A3E9F09000A11F
:10143000E0F9A3E0FAA3E09000AAC9F0A3EAF0A3C0
:10144000E9F090009BE0FBA3E0FAA3E0F9022E1D77
:10145000127816EF14B40B00400302154990146B78
:1014600075F003A4C58325F0C5837302148C0214A0
:101470009A0214BD0214E0021503021505021507B5
:1014800002151B02152F02153502154690009EE02D
:10149000FBA3E0FAA3E0F90264239000A1E0F9A322
:1014A000E0FAA3E09000A7C9F0A3EAF0A3E9F09066
:1014B000009EE0FBA3E0FAA3E0F90233D79000A17D
:1014C000E0F9A3E0FAA3E09000A7C9F0A3EAF0A333
:1014D000E9F090009EE0FBA3E0FAA3E0F90230728D
:1014E0009000A1E0F9A3E0FAA3E09000A7C9F0A35F
:1014F000EAF0A3E9F090009EE0FBA3E0FAA3E0F994
:10150000024D978002800012485E12479690009E1E
:10151000E0FBA3E0FAA3E0F9024EE912485E1247AD
:101520009690009EE0FBA3E0FAA3E0F90255411279
:101530003610026B0E12361090009EE0FBA3E0FA0C
:09154000A3E0F90264C9126CB2C7
:01154900227F
:104B6C00127822EFB408004003024C2A904B7FF8D5
:104B7C00282873024B97024B9D024BA9024BBC0297
:104B8C004BD6024BF5024C0D024C1E90014F024CC1
:104B9C002690014FE04480F090014C807D90014FB5
:104BAC00E04480F090013AE04480F090014C806A3F
:104BBC0090014FE04480F0900152E04480F090016D
:104BCC003AE04480F090014C805090014FE04480DA
:104BDC00F0A3E04480F0900152E04480F090013A60
:104BEC00E04480F090014C803190014FE04480F023
:104BFC00A3E04480F0900152E04480F090013A80B0
:104C0C001990014FE04480F0A3E04480F0900152F1
:0F4C1C00800890014FE04480F0A3E04480F02234
:0B154A00900098EBF0A3EAF0A3E9F09A
:10155500900151E04480F0127867501090014EE000
:101565004480F0900152E04404F08007900152E07D
:101575004402F0900098E0FBA3E0FAA3E0F99000A4
:101585003612051270369000331206A6FFAEF07CB7
:10159500007D0A1205DA90009FEEF0A3EFF01278B5
:1015A5006790009FE0FEA3E0FF50051262AE800049
:1015B5007B017A00799B124AAB0216B8900098E03D
:1015C500FBA3E0FAA3E02403F9E43AFAC003C0025E
:1015D500C001900098A3E0FAA3E0F9900037120546
:1015E5001275F002A4F58285F083D001D002D003F4
:1015F5001206A645F0705590014DE04408F0A3E0B1
:101605004408F0A3E04408F0A3E04408F0EBFF7EB3
:10161500007B017A00799B124AAB90009CE0FF6049
:1016250011900152E0FEEF9046F393FFEE4F9001CB
:1016350052F0900151E0FF90009BE09046E593FE4B
:10164500EF4E900151F0A3E04440F022900098E065
:10165500FBA3E0FAA3E02403F9E43AFAC002C001CF
:10166500900098A3E0FAA3E0F990003712051275EF
:10167500F002A4F58285F083D001D0021206A6FF00
:10168500AEF07C007D0A1205DA90009FEEF0A3EF24
:10169500F012786790009FE0FEA3E0FF500512620C
:1016A500AE80007B017A00799B124AAB900152E033
:1016B5004440F090009EE0FF601190014DE0FEEF88
:1016C5009046CB93FFEE4F90014DF090014EE0FF19
:1016D50090009DE09046CB93FEEF4E90014EF0A317
:1016E500E0FF90009CE09046CB93FEEF4E90014FBB
:1016F500F0A3E0FF90009BE09046CB93FEEF4E9069
:101705000150F0900098E0FBA3E0FAA3E0F9900007
:1017150037120512FF7E007B017A00799B124AABD6
:1017250090009CE0FF6011900152E0FEEF9046F3BF
:1017350093FFEE4F900152F0900151E0FF90009B16
:0C174500E09046E593FEEF4E900151F05D
:011751002275
:103B4300900151E04480F0A3E04402F0900036126B
:103B5300051270339000331206A6FFAEF07C007D91
:103B63000A1205DA900090EEF0A3EFF01278679056
:103B73000090E0FEA3E0FF50051262AE80007B01DF
:103B83007A007992124AAB900095E0FF60119001A0
:103B93004DE0FEEF9046CB93FFEE4F90014DF0903A
:103BA300014EE0FF900094E09046CB93FEEF4E90E1
:103BB300014EF0A3E0FF900093E09046CB93FEEF1D
:103BC3004E90014FF0A3E0FF900092E09046CB931C
:103BD300FEEF4E900150F012783AEF6401705C30C2
:103BE3000E5990008DE0FBA3E0FAA3E0F91204F96B
:103BF300FB54806480700BEBF404FB900152E044AF
:103C030040F0AF037E007B017A007992124AAB90B9
:103C13000094E0FF6011900152E0FEEF9046F393B1
:103C2300FFEE4F900152F0900151E0FF900093E0BE
:0B3C33009046E593FEEF4E900151F02B
:013C3E002263
:10755500EF14600A14600A24027008C20E22D20ECB
:0475650022B20E221E
:10756900EF14600A14600A24027008C20C22D20CBB
:0475790022B20C220C
:1073F800300D03C20D22900134E004F0D3940274DE
:0A7408008094804004E4F0D20D22CD
:0677F800900134E0FF22C5
:106F6D0090014BE0FF9046DCE493FEEF4E90014B19
:106F7D00F090014AE04EF0900149E0FF9046E2E4C6
:096F8D0093FEEF4E900149F02241
:10636A00E4900079F0900079E0FFC3941A74809465
:10637A0080501574062FF582E43400F58374FFF01B
:10638A00900079E004F080DD127840EF640170102B
:10639A0090001674FEF090000F743FF0A3747FF023
:1063AA009000797404F0127876500BC20912785E64
:0C63BA00900079E014F0900079E070EAA7
:0163C60022B4
:105E0100900131E004F0E0D3940574809480400463
:105E1100E4F0B20F300D45900130E004F0D3940569
:105E2100748094804013E4F0900133E004F0D39443
:105E310003748094804002E4F0900132E004F0D3D6
:105E4100940B74809480401FE4F0900134E004F0DE
:105E5100D3940274809480400EE4F022E4900130E7
:075E6100F0900132F0A3F004
:015E68002217
:1072EB00E4FFEFC3941A74809480500F74392FF518
:0B72FB0082E43401F583E4F00F80E72B
:017306002264
:10730700E4FFEFC3941A74809480500F74062FF52E
:0B73170082E43400F583E4F00F80E70F
:017322002248
:10703A00E4FFEFC3941A74809480501B74392FF5BF
:10704A0082E43401F583E0FE74062FF582E434000D
:07705A00F583EEF00F80DB6F
:01706100220C
:1017520012779D900083EBF0A3EAF0A3E9F01277F1
:10176200A4900086EBF0A3EAF0A3E9F01277B2901E
:101772000089EBF0A3EAF0A3E9F01277CE90008C97
:10178200EBF0A3EAF0A3E9F01277B990008FEBF047
:10179200A3EAF0A3E9F01277D5900092EBF0A3EA66
:1017A200F0A3E9F01277C790009512618E1276BA13
:1017B200900083126D10900086E0FBA3E0FAA3E094
:1017C200F91273AA126BE5900086E0FBA3E0FAA37C
:1017D200E0F91204F9FD900089E0FBA3E0FAA3E02E
:1017E200F91234F4406C900089E0FBA3E0FAA3E024
:1017F200F9125036900086E0F9A3E0FAA3E09000D7
:101802009BC9F0A3EAF0A3E9F0A37401F0A374006A
:10181200F0A3747FF0A37401F0A37400F0A37481A9
:10182200F0900089E0FBA3E0FAA3E0F9122CEF901C
:101832000089E0FBA3E0FAA3E0F990007FE0FCA3BB
:10184200E0FDA3E0FFA3E090009DCFF0A3EFF01234
:1018520031951273C450030218DB900086E0FBA39B
:10186200E0FAA3E0F91273DE90008FE0F9A3E0FA48
:10187200A3E090009BC9F0A3EAF0A3E9F0900086F0
:10188200E0FBA3E0FAA3E0F9124530404C90008F50
:10189200E0F9A3E0FAA3E090009BC9F0A3EAF0A369
:1018A200E9F0A37401F0A37400F0A3747FF0A374B1
:1018B20001F0A37400F0A37481F0900086E0FBA312
:1018C200E0FAA3E0F9123C3F90007FE0FEA3E0FFC4
:1018D200A3E0FCA3E0FD123A45124B6C90008CE0B1
:1018E200F9A3E0FAA3E090009BC9F0A3EAF0A3E910
:1018F200F0900095E0F9A3E0FAA3E090009EC9F011
:10190200A3EAF0A3E9F09000921220DB900092E0AB
:10191200F9A3E0FAA3E090009BC9F0A3EAF0A3E9DF
:10192200F090008CE0F9A3E0FAA3E090009EC9F0E9
:10193200A3EAF0A3E9F090009512133D900083E032
:0D194200FBA3E0FAA3E0F912154A02703A87
:104460001277CE90007BEBF0A3EAF0A3E9F012778D
:10447000D590007EEBF0A3EAF0A3E9F01277C790A5
:104480000081EBF0A3EAF0A3E9F012779D9000849D
:10449000EBF0A3EAF0A3E9F01277C0900087126175
:1044A0008E900084126D101276BA90007BE0F9A312
:1044B000E0FAA3E090009BC9F0A3EAF0A3E9F09032
:1044C0000081E0F9A3E0FAA3E090009EC9F0A3EA1E
:1044D000F0A3E9F090007E1220DB90007EE0F9A3CB
:1044E000E0FAA3E090009BC9F0A3EAF0A3E9F09002
:1044F000007BE0F9A3E0FAA3E090009EC9F0A3EAF4
:10450000F0A3E9F090008112133D900087E0F9A339
:10451000E0FAA3E090008DC9F0A3EAF0A3E9F090DF
:104520000084E0FBA3E0FAA3E0F9123B4302703AF7
:0677FE009001A4EFF0224F
:067804009001A4E0FF2248
:1074BC00127764EF4E700E9001A4E0600814F0E0B7
:0674CC007003126E46225F
:10660300C207C2DC7F021275E0D2DC1276497FA09A
:10661300126FE8920730072D7F02126FE89207305E
:1066230007237FA9126FE892073007197FA4126F1F
:10663300E8920730070F7F92126FE8920730070541
:09664300127638D322127638C316
:01664C00222B
:10741200900079EFF01276497FA0126FE890007920
:0A742200E04488FF126FE80276389C
:106E1B00E490007FF01276497FA0126FE890007F1C
:106E2B00E04488FF126FE812763890007FE004F0A0
:0A6E3B00E0C394057480948040DBEE
:016E4500222A
:106E4600E490007FF01276497FA0126FE890007FF1
:106E5600E04440FF126FE812763890007FE004F0BD
:0A6E6600E0C394087480948040DBC0
:016E700022FF
:106B440090007F7402F0A37405F01276497FA112BD
:106B54006FE84010127359900080EFF01276E11242
:106B64007638800C12763890007FE014F0E070DA0A
:056B7400900080E0FF2D
:016B790022F9
:10754000126603500F7F03127412E4FF1274127F4D
:0575500002127412227A
:086E71004100C2044100C10010
:03786700A2152245
:07779D007B017A0079C32291
:03786A00A2142243
:05007600A20792142214
:10757D00EF14600A14600A24027008C21522D21595
:04758D0022B21522EF
:102A8C00C207C2081277C0900082EBF0A3EAF0A351
:102A9C00E9F0439908439910439920127616C29392
:102AAC0000001276277FA0126FBF92077F60126F13
:102ABC00BF92071276277FA1126FBF9207E4900096
:102ACC0079F0900079E0C3940674809480501D12C4
:102ADC00733E900079E0247CF582E43400F583EFBA
:102AEC00F01276D4900079E004F080D61276C712FA
:102AFC00761690007CE064997015A3E064AA700FC0
:102B0C00A3E064BB7009A3E064CC7003D38001C361
:102B1C009208300833900080E0FF900082E0FBA325
:102B2C00E0FAA3E0F9EF120594900081E0FFA3E036
:102B3C00FBA3E0FAA3E0F9900002EF1205A69000C7
:102B4C0082E09000010205A690007B7499F0900041
:102B5C007A7460F0E4900079F0900079E0C3940608
:102B6C0074809480504B7F0A1275E01276277FA0F8
:102B7C00126FBF920790007AE0FF126FBF9207901E
:102B8C000079E0D39403748094804003E480049033
:102B9C00007BE0FF126FBF920712761690007BE06D
:102BAC002411F090007AE004F0900079E004F080B9
:012BBC00A870
:012BBD0022F5
:0869B000900081EFF0A3EDF06F
:1069B800C2071276277FA0126FBF920730071F9079
:1069C8000081E0FF126FBF9207300712900082E04B
:1069D800FF126FBF9207300705127616D322127680
:0269E80016C3D4
:0169EA00228A
:103E2E00C2071276277FA0126FBF920720070302E8
:103E3E003F1A7F02126FBF9207200703023F1A122A
:103E4E0076277FA1126FBF9207200703023F1AE465
:103E5E00900079F0900079E0C3940A7480948050B9
:103E6E005812733E90007AEFF01276D490007AE0FA
:103E7E00FFA3E4F0A3EFF012733E90007AEFF0127E
:103E8E0076D490007CE07F00FE90007BF0A3EFF0F4
:103E9E0090007AE0FDEDFFA3EEF0A3EFF090007935
:103EAE00E025E0247DF582E43400F583EEF0A3EF07
:103EBE00F0900079E004F0809B1276C7127616908F
:103ECE00007DE0FFA3E09000FFCFF0A3EFF09000A5
:103EDE007FE0FFA3E0900101CFF0A3EFF09000810F
:103EEE00E0FFA3E0900103CFF0A3EFF0900083E09A
:103EFE00FFA3E0900105CFF0A3EFF0900085E0FF67
:103F0E00A3E0900107CFF0A3EFF0D322127616C3F1
:013F1E002280
:106F960012779D900036120512D394007480948067
:106FA600401690003674FF120561900036120512E5
:086FB60070069000371205A6D9
:016FBE0022B0
:106C4D009000C1E004F0127873400F9000C1E0D3C2
:106C5D009408748094874015800D9000C1E0D39402
:106C6D001E748094804006E4F0A37404F09000C27A
:026C7D00E0FF36
:016C7F0022F2
:056BB00090007EEFF0F3
:106BB500C2081276277FEE126FBF920830081C7F3D
:106BC500FF126FBF920830081290007EE0FF126F2F
:0F6BD500BF9208300805127616D322127616C327
:016BE400228E
:0B5B530090007EEBF0A3EAF0A3E9F065
:105B5E00C2081276277FEE126FBF920830085D7F63
:105B6E00FD126FBF92083008531276277FEF126F27
:105B7E00BF920830084612733E900081E4F0A3EF06
:105B8E00F01276D4900082E0F8E4F0E8900081F014
:105B9E0012733E900081E0F0A3E04FF01276C71230
:105BAE007616900081E0F9A3E0FF90007EE0FBA363
:105BBE00E0FAA3E0C98FF0120716D322127616C3AD
:015BCE0022B4
:105ED000C207439908439910439920127616D2932A
:105EE00000009000C2E014603A146028146012149C
:105EF00070417FF0126BB092079000C27403F08083
:105F0000327B017A0079FB125B5392079000C274D6
:105F100002F0801F7FE8126BB092079000C27401FC
:105F2000F080107B017A0079FD125B539207E490B8
:055F300000C2F0A20711
:015F35002249
:0B194F0090007EEBF0A3EAF0A3E9F0AB
:10195A001277C090008DEBF0A3EAF0A3E9F09000B3
:10196A00FFE0FEA3E0FFC39000FCE09FFD9000FBB8
:10197A00E09EFC1203499000811208CAE4FFFE7D32
:10198A00C87C42900081E0F8A3E0F9A3E0FAA3E062
:10199A00FB12019EC004C005C006C007900105E005
:1019AA00FCA3E0FDE4120349A804A905AA06AB07B3
:1019BA00D007D006D005D0041202A79000811208E1
:1019CA00CA900101E0FEA3E0FFC39000FEE09FFD84
:1019DA009000FDE09EFC1203499000851208CAE4BB
:1019EA00FFFE7D687C42900085E0F8A3E0F9A3E061
:1019FA00FAA3E0FB12019EC004C005C006C007900E
:101A0A000107E0FCA3E0FDE4120349A804A905AA22
:101A1A0006AB07D007D006D005D0041202A7900063
:101A2A00851208CA900101E0FEA3E0FFC39000FE00
:101A3A00E09FFD9000FDE09EFC1203499000891290
:101A4A0008CA900089E0FCA3E0FDA3E0FEA3E0FF42
:101A5A00A804A905AA06FB12019EE4FBFA794878B4
:101A6A004212019EC004C005C006C007900107E0EB
:101A7A00FEA3E0FFE4FCFD7BBD7A95F9F81207624C
:101A8A00EC120344A804A905AA06AB07D007D0069E
:101A9A00D005D0041202A79000891208CA90010347
:101AAA00E0FCA3E0FDE4120349900081E0F8A3E022
:101ABA00F9A3E0FAA3E0FB1200AD900085E0F8A3D9
:101ACA00E0F9A3E0FAA3E0FB1200AD900089E0F888
:101ADA00A3E0F9A3E0FAA3E0FB1200AD120382909F
:101AEA00008DE0FBA3E0FAA3E0F91204F9FD3395B7
:101AFA00E0FCED2FFFEC3EFED3EF94F8EE942A4083
:101B0A001590007EE0FBA3E0FAA3E0F9900033749D
:101B1A002A75F0F88021C3EF94A0EE940F90007E0E
:101B2A00E0FBA3E0FAA3E0F99000335007740F75C5
:0A1B3A00F0A08003EE8FF0120735D3
:011B4400227E
:1063C7009000027401120561900002120512C39435
:1063D700047480948040359000331206A6FFE5F0E0
:1063E7008FF01206DE12067BAEF07802CEC313CE14
:1063F70013D8F9FF900033EE8FF0120735900002A3
:10640700E41205A6E4F5F0120716D3229000331222
:0C64170006A6FFE5F08FF01206DEC3229F
:0B52C90090007EEBF0A3EAF0A3E9F0F8
:1052D4009000031206A6FF900081E5F0F0A3EFF022
:1052E4007F01EFC3943074809480505F90007EE01F
:1052F400FBA3E0FAA3E02403F9E43AFA75F002EF21
:10530400A4F58285F0831206A6FD900083E5F0F0F3
:10531400A3EDF0900081E0FCA3E0FD90007EA3E00B
:10532400FAA3E02403F9E43AFA75F002EFA4F58253
:1053340085F083EC8DF0120735900083E0FDA3E047
:10534400900081CDF0A3EDF00F809790007EE0FBFC
:10535400A3E0FAA3E0F99000331206A6FF9000033D
:07536400E5F08FF0020735B0
:1067F4009000111206A6FFAEF04E6035900005120F
:1068040006A6C39FFD3395E0FCC3ED941EEC6480A3
:106814009480400790003574028013D3ED94E2EC29
:106824006480947F900035500474018001E4120563
:01683400A6BD
:016835002240
:105E690012779D90007BEBF0A3EAF0A3E9F0126CA6
:105E79004DEF6052125ED040099000C27404F0C226
:105E890093229000C2E0703EC29390007BE0FBA396
:105E9900E0FAA3E0F912194FD21490007BE0FBA3BA
:105EA900E0FAA3E0F91263C7501C90007BE0FBA362
:105EB900E0FAA3E0F91252C990007BE0FBA3E0FAF3
:065EC900A3E0F91267F4EA
:015ECF0022B0
:0D76C700D2940000D2950000C29500002270
:0D76D400C2940000D2950000C29500002273
:10761600C2950000C2940000D2950000D2940000EA
:017626002241
:10762700D2940000D2950000C2940000C2950000D9
:017637002230
:10732300C2095399EFD2950000A2949209C2950025
:0A73330000439910300902C322D371
:01733D00222D
:106FBF00E4FEEEC3940874809480501AEF548070EE
:106FCF0004C2948002D294EF25E0FFD2950000C254
:096FDF009500000E80DC02732312
:10733E00E4FFFEEEC3940874809480500DEF25E0B8
:0A734E00FF12732340010F0E80E9C7
:017358002212
:0D76E100D2DB0000D2DA0000C2DA00002285
:10763800C2DA0000C2DB0000D2DA0000D2DB0000B0
:01764800221F
:10764900D2DB0000D2DA0000C2DB0000C2DA00009F
:01765900220E
:1072B100C209000053D1F7D2DA0000A2DB9209C261
:0C72C100DA000043D108300902C322D3D8
:0172CD00229E
:106FE800E4FEEEC3940874809480501AEF548070C5
:106FF80004C2DB8002D2DBEF25E0FFD2DA0000C258
:09700800DA00000E80DC0272B116
:10735900E4FFFEEEC3940874809480500DEF25E09D
:0A736900FF1272B140010F0E80E91F
:0173730022F7
:103F1F0090007FEBF0A3EAF0A3E9F090018AE07044
:103F2F0002A3E0702B126CE24003023FFA9001896A
:103F3F007401F0A3E4F0A37414F0A37401F075BA44
:103F4F000F75BFF475BE2343BA8043AA08023FE43E
:103F5F0090007FE0FBA3E0FAA3E0F91204F9FF134E
:103F6F0013540164016003023FFA90018AF0A374B5
:103F7F0014F0900189E004F090018EE06402702546
:103F8F00900189E0D39402748094804048E4F0A3B8
:103F9F00F0A3F090018D7414F07F01126D97E490EF
:103FAF00018CF08030127840EF6401700D90018920
:103FBF00E0640A7005740BF0801B900189E0D394C4
:103FCF000B74809480400EE4F0A3F0A3F0A3F053A1
:103FDF00BA7F53AAF712771590007FE0FBA3E0FAA0
:103FEF00A3E0F990000274051205A690007FE0FB94
:0E3FFF00A3E0FAA3E0F91204F954FB020594C2
:1067B00090007FEBF0A3EAF0A3E9F0126CE2502125
:1067C00012775BEF4E701AFF1273741277159000F8
:1067D0007FE0FBA3E0FAA3E0F99000027405120544
:1067E000A690007FE0FBA3E0FAA3E0F91204F954BD
:0467F000FB0205940F
:0B000E0090007FEBF0A3EAF0A3E9F004
:100019001277F8900082EFF0126CE2504C90018751
:10002900E024FE601004702E12738F900082E0FFAE
:100039001269EB800B127274900082E0FF126A263B
:1000490012771590007FE0FBA3E0FAA3E0F9900096
:100059000274051205A690007FE0FBA3E0FAA3E075
:09006900F91204F954FB1205948C
:01007200226B
:0B32B600900085EBF0A3EAF0A3E9F024
:1032C1001277AB900088EBF0A3EAF0A3E9F0127853
:1032D10028EF70030233687F1412782E126B7A4044
:1032E100030233D6900088E0FBA3E0FAA3E0F99053
:1032F100000274011205611271D3900088E0FBA3F2
:10330100E0FAA3E0F9900002120512D39F500302E4
:1033110033D690000274011205A6900001740112C7
:103321000561900001120512D3940C7480948050B1
:10333100030233D6900088E0FBA3E0FAA3E0F99002
:10334100000174011205A6740112053F900088E086
:10335100FBA3E0FAA3E0F91204F9D3946374809417
:10336100804072E40205947F1412782E900085E06B
:10337100FBA3E0FAA3E0F9900009120512FF900007
:1033810088E0FBA3E0FAA3E0F9EF12059490008531
:10339100E0FBA3E0FAA3E0F9900008120512FF9008
:1033A1000088E0FBA3E0FAA3E0F9900001EF120529
:1033B100A6900085E0FBA3E0FAA3E0F990000712D4
:1033C1000512FF900088E0FBA3E0FAA3E0F990006A
:0533D10002EF1205A649
:0133D60022D4
:0B1B450090007FEBF0A3EAF0A3E9F0B2
:101B50001277CE900082EBF0A3EAF0A3E9F09001B7
:101B60008AE07002A3E07003021CA790018EE0647B
:101B700002701F126B7A4003021D16900189E02447
:101B8000FE6009047009127604021CA01275F202AC
:101B90001CA0126B7A4003021D1690007FE0FBA38D
:101BA000E0FAA3E0F91204F9FF1313540164016091
:101BB00003021C68900189E024FB603524FD605518
:101BC00014605714605B147003021C63240A6003E2
:101BD000021C68900082E0FBA3E0FAA3E0F9120483
:101BE000F9FFC3135401F4540125E0FEEF54FD80C6
:101BF0001E900082E0FBA3E0FAA3E0F91204F9FFD3
:101C000013135401F4540125E025E0FEEF54FB4E7C
:101C100012059480531275CD804E7F021275A580F7
:101C200047900082E0FBA3E0FAA3E0F99000027481
:101C300001120561900002120512D394037480947E
:101C4000804019900082E0FBA3E0FAA3E0F9900045
:101C500002E41205A67F03126AD6800C7F0112717E
:101C60009080057F02126A61900189E024FD601373
:101C700014601524FE601614601824057017127580
:101C8000148012127446800D12752A80081268772B
:101C900080031270FC1277CE124E40E4FF123D38E2
:101CA0007F01127569806F90018EE01460291460C5
:101CB0004124027061126CE2505CD207126EF01285
:101CC000771590007FE0FBA3E0FAA3E0F990000213
:101CD00074051205A6803F900082E0FBA3E0FAA302
:101CE000E0F91232B61277AB124F907F01123D38F5
:101CF000802490007FE0FBA3E0FAA3E0F91204F94E
:101D0000131354016401700E90018D7414F07F025E
:101D1000126D9712771590007FE0FBA3E0FAA3E025
:091D2000F91204F954FB020594C8
:103725001277AB900085EBF0A3EAF0A3E9F01277EE
:10373500CE900088EBF0A3EAF0A3E9F0127828EF29
:1037450070030237CB7F1412782E126B7A40030276
:103755003839900085E0FBA3E0FAA3E0F990000278
:1037650074FF1205619000021205126003023839D8
:103775001271D3900085E0FBA3E0FAA3E0F9900075
:1037850002EF1205A690000174FF12056190000179
:103795001205126003023839900085E0FBA3E0FAB8
:1037A500A3E0F9900001740C1205A674FF12053F01
:1037B500900085E0FBA3E0FAA3E0F91204F9F470A8
:1037C5007374630205947F1412782E900088E0FBD1
:1037D500A3E0FAA3E0F9900009120512FF90008515
:1037E500E0FBA3E0FAA3E0F9EF120594900088E06E
:1037F500FBA3E0FAA3E0F9900008120512FF900080
:1038050085E0FBA3E0FAA3E0F9900001EF1205A61D
:10381500900088E0FBA3E0FAA3E0F9900007120509
:1038250012FF900085E0FBA3E0FAA3E0F990000207
:04383500EF1205A6E3
:01383900226C
:0B1F0C0090007FEBF0A3EAF0A3E9F0E7
:101F17001277CE900082EBF0A3EAF0A3E9F09001EC
:101F27008AE07002A3E0700302206990018EE064EA
:101F370002701F126B7A40030220C8900189E024C7
:101F4700FE60090470091277080220621276FB020C
:101F57002062126B7A40030220C890007FE0FBA347
:101F6700E0FAA3E0F91204F9FF13135401640160C6
:101F77000302202A900189E024FB603524FD605587
:101F870014605714605B147003022025240A600351
:101F970002202A900082E0FBA3E0FAA3E0F91204F2
:101FA700F9FFC3135401F4540125E0FEEF54FD80FB
:101FB7001E900082E0FBA3E0FAA3E0F91204F9FF08
:101FC70013135401F4540125E025E0FEEF54FB4EB2
:101FD700120594804E12769E80497F021275A58065
:101FE70042900082E0FBA3E0FAA3E0F990000274BC
:101FF700FF120561900002120512F4701A90008218
:10200700E0FBA3E0FAA3E0F990000274031205A62F
:102017007F03127190800C7F01126AD680057F02C0
:10202700126A61900189E024FD601314601524FE93
:1020370060161460182405701712767C80121275CA
:10204700B9800D12768D8008126A9C800312712266
:102057001277CE124E40E4FF123D387F01127569A8
:10206700805F90018EE01460241460312402705167
:1020770090007FE0FBA3E0FAA3E0F91204F9131341
:1020870054016401703B7F0212757D803112372540
:102097001277AB124F907F01123D38802490007F5A
:1020A700E0FBA3E0FAA3E0F91204F9131354016467
:1020B70001700E90018D7414F07F02126D971277E4
:1020C7001590007FE0FBA3E0FAA3E0F91204F954AE
:0420D700FB0205946F
:106E9C0090018EE004F0E0FF7E00D39402748094A5
:106EAC00804008E4F090018DF0800CEF64024E708D
:0A6EBC000690018D7414F0027715A2
:06780A001273F80277156D
:1065190090007FEBF0A3EAF0A3E9F0900188E06036
:106529001D900187E004F0A3740CF0900187E0D37B
:106539009402748094804023E4F0A3F0801D9000BD
:106549007FE0FBA3E0FAA3E0F91204F954FB12057A
:0F655900949001877401F0A3740CF0127715224F
:1068B80012779D90018AE07002A3E0703090018EFB
:1068C800E0702A90003674141205A69000377401FF
:1068D800120561D3941874809480400E900037E4B8
:0D68E8001205A6900036E41205A6127715E1
:0168F5002280
:0977490090018AE07002A3E02225
:1075910090018AE07002A3E0600990018AE4F0A3FF
:0475A1007414F0224C
:1050DB0090007CEBF0A3EAF0A3E9F07F281277FEB7
:1050EB00127764EF4E7007127776EF4E60271276C9
:1050FB00ACE4FFFE12776D12771590007CE0FBA3FA
:10510B00E0FAA3E0F990000274051205A61204F967
:10511B0054FB02059412759190007CE0FBA3E0FA1E
:10512B00A3E0F990000112051214601014601B1417
:10513B0060261460312404703B023F1F90007CE01A
:10514B00FBA3E0FAA3E0F90267B090007CE0FBA3BD
:10515B00E0FAA3E0F902000E90007CE0FBA3E0FA7A
:10516B00A3E0F9021B4590007CE0FBA3E0FAA3E06F
:05517B00F9121F0C22D7
:0B5F9C0090007CEBF0A3EAF0A3E9F01A
:105FA700900002120512C3940574809480504A7FB2
:105FB700281277FE90007CE0FBA3E0FAA3E0F990BB
:105FC7000002120512FF90000274051205A6EF14D5
:105FD700601014601014601B14601B2404701A02F4
:105FE7006E9C02780A90007CE0FBA3E0FAA3E0F93C
:095FF7000265190268B81277492D
:01600000227D
:0977520090018AE0FEA3E0FF2291
:0678100090018EE0FF2252
:06781600900189E0FF2251
:06781C0090018CE0FF2248
:0777A4007B017A01798722C5
:106D3D00D390018BE0940090018AE09400401DA354
:106D4D00E024FFF090018AE034FFF0E07002A3E050
:0D6D5D00700A900189F053BA7F53AAF72203
:1072150090018DE0D39400748094804012127752CF
:10722500EF4E700B90018DE014F0E07002A3F02298
:10745F00900188E0D3940074809480400AE014F087
:08746F00E07004900187F02297
:106C19001277EA900079EBF0A3EAF0A3E9F0120405
:106C2900F9FFC31354016401900079700BE0FBA3D1
:106C3900E0FAA3E0F90250DBE0FBA3E0FAA3E0F9F4
:036C4900125F9C3B
:016C4C002225
:105703000000001F001C001F001E001F001E001FC2
:10571300001F001E001F001E001F310D223812291A
:1057230003182E0A1F350F263B152B071C320C239B
:1057330038122804192E0920350F2401162B061DB3
:10574300320C21391328031A2F091E3610253A1754
:105753002C061C330D223714290319300A1F341168
:10576300263B152D071C310D2338122A04192E0A46
:1057730020350F2701172D091F340E243A15000079
:105783000302050003050104060204050C141B2291
:0357930029313881
:0B4F9000900085EBF0A3EAF0A3E9F02D
:104F9B0078897C007D017BFF7A5779817E007F0DBC
:104FAB001204D3900085E0FBA3E0FAA3E0F912040E
:104FBB00F9900088F0900001120512C394037480DD
:104FCB0094805006900088E014F0900085E0FBA3DD
:104FDB00E0FAA3E0F9900002120512FF900088E0BE
:104FEB00FD7C002FFBEC33FAED240CFFEC33FE7D44
:104FFB000412062FEF2BFFEE3AFE900085E0FBA389
:10500B00E0FA9000011205122489F582E43400F5D0
:10501B0083E07C002FFFEC3ECF240BCF3400FE7DD2
:0B502B00071205DA900003ED0205A655
:0777AB007B017A01799622AF
:0678220090019BE0FF2233
:0678280090019AE0FF222E
:06782E0090019AEFF02228
:1072550090019AE0D39400748094804011E014F07A
:0F726500E0700B1277CE124E40E4FF123D38223C
:0865B70090008FEEF0A3EFF05D
:1065BF0078917C007D017BFF7A57798E7E007F0872
:1065CF001204D3E4FFFEEEC394087480948050232A
:1065DF0074912EF582E43400F583E0FDC3900090B2
:1065EF00E09D7480F890008FE06480985002AF06B1
:0365FF000E80D338
:016602002275
:053D3800900085EFF092
:103D3D001277CE900089EBF0A3EAF0A3E9F01277A9
:103D4D00ABA3EBF0A3EAF0A3E9F0900085E0FF7ED2
:103D5D00007027900089E0FBA3E0FAA3E0F9900042
:103D6D0007120512900086F09000081205129000BF
:103D7D0087F09000091205128028EF64014E70261D
:103D8D0090008CE0FBA3E0FAA3E0F990000212058D
:103D9D0012900086F0900001120512900087F0122B
:103DAD0004F9900088F0E4FFFE7D01900087E0FCAF
:103DBD00EDC39C501AED25E02403F582E43457F54C
:103DCD0083E493FA7401932FFFEA3EFE0D80DC909D
:103DDD000086E02FFFE43EFEECD3940274809480C5
:103DED00400D900088E0540370050FBF00010E9048
:103DFD000088E090571D93FDEF24FFFFEE34FFFE8A
:103E0D00EF25E0FFEE33FE7C00EF2DFFEC3EFE7D57
:103E1D003B1205DAAF057E001265B790019BEFF0FE
:013E2D002272
:05723500FF90008BF04A
:10723A00E4FE7D08ED600FEF5401640170010EEF6A
:0A724A00C313FF1D80EEEE5401FF98
:017254002217
:0B0E4200900085EBF0A3EAF0A3E9F0BC
:100E4D00C20712067B54DFFFE5F08FF012071690F4
:100E5D000085E0FBA3E0FAA3E02407F9E43AFA12D7
:100E6D0004F9C313120594900085E0FBA3E0FAA3E7
:100E7D00E0F9900003120512D3941474809480400D
:100E8D000FE92407F9E43AFA1204F944081205941B
:100E9D00900085E0FBA3E0FAA3E0F990000574FF54
:100EAD00120561900005120512600302133C9000BB
:100EBD0085E0FBA3E0FAA3E0F990000574041205A8
:100ECD00A69000067401120561900007120512FF2D
:100EDD00900006120512FD7C00E9240BF9E43AFAA4
:100EED00E92DF9EC3AFAEF120594900085E0FBA399
:100EFD00E0FAA3E0F990000612051224F87003023F
:100F0D0012431470030211B124FE700302114A241E
:100F1D00FE70030210DF24FE600302131E90000614
:100F2D00E41205A6900016120512FF900015120589
:100F3D00126FFF9000171205126FFF900018120527
:100F4D00126FFF9000191205126FFF90001A120513
:100F5D001254036F127235A3EFF0900085E0FBA3DE
:100F6D00E0FAA3E0F990001A120512FE13135401D2
:100F7D00FDED6F6005C20702131E900019120512D8
:100F8D0025E025E0FF9000181205121313543F4F72
:100F9D00FF90001A120512FEC4333354C04F900057
:100FAD008BF0D39499748094804005C20702131E70
:100FBD00900085E0FBA3E0FAA3E0F990001F120575
:100FCD0012FF90008BE0FE6F600790001FEE021382
:100FDD001B900085E0FBA3E0FAA3E0F9900002125C
:100FED00051270EDC2AF539E7F90001B120512FFCC
:100FFD00900088E0FBA3E0FAA3E0F9900005EF1262
:10100D0005A6900085E0FBA3E0FAA3E0F990001C93
:10101D00120512FF900088E0FBA3E0FAA3E0F9901F
:10102D000006EF1205A6900085E0FBA3E0FAA3E011
:10103D00F990001D120512FF900088E0FBA3E0FA65
:10104D00A3E0F9900007EF1205A6900085E0FBA341
:10105D00E0FAA3E0F990001E120512FF900088E05F
:10106D00FBA3E0FAA3E0F9900008EF1205A69000AB
:10107D008BE0FF1274FE900088E0FBA3E0FAA3E082
:10108D00F9900009EF1205A6900085E0FBA3E0FAA8
:10109D00A3E0F912067B4408FFE5F08FF012071666
:1010AD00900088E0FBA3E0FAA3E0F9900004E412BD
:1010BD0005A6C20912785E900085E0FBA3E0FAA3B5
:1010CD00E0F912067B54FBFFE5F08FF012071602D4
:1010DD00131E900085E0FBA3E0FAA3E0F990001841
:1010ED0012051233333354F8FF900017120512C353
:1010FD00134F541FFF90008BF07E00D39412748019
:10110D0094805003EF7005C20702131E900085E016
:10111D00FBA3E0FAA3E0F990001E120512FE900069
:10112D008BE0FF6E6002800E1274FE900085E0FB76
:10113D00A3E0FAA3E0F990001EEF02131B900085C7
:10114D00E0FBA3E0FAA3E0F9900016120512540398
:10115D00C454F0FF9000151205124FFF90008BF054
:10116D007E00D39431748094805003EF7005C207D4
:10117D0002131E900085E0FBA3E0FAA3E0F99000B6
:10118D001D120512FE90008BE0FF6E6002800E12A4
:10119D0074FE900085E0FBA3E0FAA3E0F990001D3A
:1011AD00EF02131B900085E0FBA3E0FAA3E0F9909A
:1011BD00001412051233333354F8FF900013120547
:1011CD0012FEC3134F543F127235A3EFF0900085FA
:1011DD00E0FBA3E0FAA3E0F9900014120512FE1350
:1011ED0013135401FDED6F6005C20702131E90002D
:1011FD008BE0FFD39423748094804005C2070213C3
:10120D001E900085E0FBA3E0FAA3E0F990001C120C
:10121D0005126F90008B6007E090001C02131BE01D
:10122D00FF1274FE900085E0FBA3E0FAA3E0F990B5
:10123D00001CEF02131B900085E0FBA3E0FAA3E076
:10124D00F990001B120512F4604990001B740112F5
:10125D00056190001B120512540FD39409748094EC
:10126D00804013900085E0FBA3E0FAA3E0F9900025
:10127D001B7406120561900085E0FBA3E0FAA3E064
:10128D00F990001B120512D3945974809480400379
:10129D0012007E900085E0FBA3E0FAA3E0F9900038
:1012AD001212051233333354F8FF90001112051248
:1012BD00FEC3134F547F127235A3EFF0900085E0FB
:1012CD00FBA3E0FAA3E0F99000131205125401FDFF
:1012DD00EF6D6004C207803990008BE0FFD3945905
:1012ED00748094804004C207802790001B12051261
:1012FD006F90008B6004E0FF8005E0FF1274FE909C
:10130D000085E0FBA3E0FAA3E0F990001BEF1205C6
:10131D00A620071B900085E0FBA3E0FAA3E0F912DD
:0F132D00067B547FFFE5F08FF012071612007E4B
:01133C00228E
:0B23E1009000BEEBF0A3EAF0A3E9F0CF
:1023EC00C20B900002120512641A70189000BEE025
:1023FC00FBA3E0FAA3E0F912067B4420FFE5F08F83
:10240C00F0120716E590548070139000BEE0FBA309
:10241C00E0FAA3E0F912067B54EF02250C9000BE03
:10242C00E0FBA3E0FAA3E0F912067BFDACF0AE04EE
:10243C007805CEC313CE13D8F920E00890000374AE
:10244C0001120561ECC4F854F0C8EDC4540F4830C7
:10245C00E00302255412067B4410FFE5F08FF012C6
:10246C0007169000BEE0FBA3E0FAA3E0F912067B8E
:10247C00AEF07806CEC313CE13D8F930E0030225A4
:10248C0011900002120512FFD39485748094805031
:10249C000AC3EF947B748094805003D38001C39261
:1024AC000B300B0E900002E41205A6900004E4021F
:1024BC0005A6900002E41205A69000047401120512
:1024CC0061900004120512D39404748094804078B7
:1024DC009000BEE0FBA3E0FAA3E0F912067B4440B7
:1024EC00FFE5F08FF01207169000BEE0FBA3E0FAB8
:1024FC00A3E0F990000474021205A612067B54DFC7
:10250C00FFE5F0803E9000BEE0FBA3E0FAA3E0F90B
:10251C00900002120512FFC3947A74809480400AD2
:10252C00D3EF9406748094804003D38001C3920B44
:10253C00300B1590000474021205A612067BFFE501
:08254C00F044018FF0120716A4
:012554002264
:1049E80090007FEBF0A3EAF0A3E9F090007FE0FBF2
:1049F800A3E0FAA3E0F912067BFDACF0AE0478065A
:104A0800CEC313CE13D8F920E003024AAAAE04EDB0
:104A18007805CEC313CE13D8F920E003024AAA12B0
:104A2800067B54DFFFE5F08FF012071690007FE059
:104A3800FBA3E0FAA3E0F912067BAEF07807CEC339
:104A480013CE13D8F930E020C002C001900082E0F4
:104A5800F9A3E0FAA3E0900088C9F0A3EAF0A3E97B
:104A6800F0D001D002020E4290007FE0FBA3E0FAF2
:104A7800A3E0F9900003120512702712067B448008
:104A8800FFE5F08FF012071690007FE0FBA3E0FA35
:104A9800A3E0F9900006E41205A69000057404123C
:034AA80005A6223E
:10765A0008070605001F1C1F1E1F1E1F1F1E1F1EB8
:01766A001F00
:0468F600AD07AC0638
:1068FA00EC540FFBED54F0FFE4C4F854F0C8EFC4B5
:10690A00540F48FF7C00ED540FFDAE031BEE6006EA
:10691A00740A2FFF80F4AE071FEE6009740A2DFD7A
:09692A00E43CFC80F1AE04AF0571
:016933002241
:0B59450090008EEBF0A3EAF0A3E9F065
:105950009000221206A6900091F0E4A3F078937CC8
:10596000007D017BFF7A76795EFE7F0D1204D39075
:105970000092E004F0E0FF2493F582E43400F58324
:10598000E0FEEF6402701690008EE0FBA3E0FAA345
:10599000E0F990001F120512540370010E9000915F
:1059A000E0FFD39E4005EF9EF080C4900092E0FFA0
:1059B00090008EE0FBA3E0FAA3E0F990001EEF1246
:0C59C00005A6900091E090001D0205A6D5
:0B08FA00900085EBF0A3EAF0A3E9F00A
:10090500C2082407F9E43AFA1204F925E01205941D
:10091500900085E0FBA3E0FAA3E0F990000312053F
:1009250012D3942074809480400FE92407F9E43AA7
:10093500FA1204F94401120594900085E0FBA3E046
:10094500FAA3E0F990000574FF1205619000051205
:1009550005126003020E41900085E0FBA3E0FAA3B7
:10096500E0F990000574041205A6900006740112C2
:100975000561900007120512FF900006120512FD91
:100985007C00E9240BF9E43AFAE92DF9EC3AFAEF9F
:10099500120594900085E0FBA3E0FAA3E0F990002E
:1009A50007E41205A690000612051224FD70030245
:1009B5000D5824FE7003020CE624FC7003020C2083
:1009C50024FB7003020B8E146003020E2390008536
:1009D500E0FBA3E0FAA3E0F9900006E41205A69077
:1009E500001A1205125402FF90008BF0900020129D
:1009F50005126F601690008BE0FF900085E0FBA369
:100A0500E0FAA3E0F9900020020E1F900085E0FBBC
:100A1500A3E0FAA3E0F990000212051270EDC2AF4F
:100A2500539E7F9000201205125402FF900088E02B
:100A3500FBA3E0FAA3E0F990000AEF1205A69000E7
:100A450085E0FBA3E0FAA3E0F990001F120512FF71
:100A5500900088E0FBA3E0FAA3E0F9900009EF120B
:100A650005A6900085E0FBA3E0FAA3E0F990001E3F
:100A7500120512FF900088E0FBA3E0FAA3E0F990CD
:100A85000008EF1205A6900085E0FBA3E0FAA3E0BD
:100A9500F990001D120512FF900088E0FBA3E0FA13
:100AA500A3E0F9900007EF1205A6900085E0FBA3EF
:100AB500E0FAA3E0F990001C120512FF900088E00F
:100AC500FBA3E0FAA3E0F9900006EF1205A690005B
:100AD50085E0FBA3E0FAA3E0F990001B120512FFE5
:100AE500900088E0FBA3E0FAA3E0F9900005EF127F
:100AF50005A6900085E0FBA3E0FAA3E0F912067BCA
:100B05004408FFE5F08FF0120716900085E0FBA37F
:100B1500E0FAA3E0F912067B54FBFFE5F08FF01233
:100B25000716900088E0FBA3E0FAA3E0F990000423
:100B3500E41205A6C20912785E12744650121275A7
:100B450014500D1270FC5008126877500312752A64
:100B5500900088E0FBA3E0FAA3E0F99000021205FB
:100B65001290765A93FF126AD6900088E0FBA3E0B4
:100B7500FAA3E0F990000A12051264026003020E5E
:100B8500237F01127190020E23900085E0FBA3E004
:100B9500FAA3E0F99000171205125407C43354E084
:100BA500FF90008BF0900018120512FE5408FD25E9
:100BB500E04FFF90008BF0EE540325E025E04FFF5A
:100BC500F0900019120512540C1313543F4F900066
:100BD5008BF0D39499748094804002C2089000856C
:100BE500E0FBA3E0FAA3E0F990001F120512FE90C6
:100BF500008BE0FF6E600690001F020E1F1274FE50
:100C0500900085E0FBA3E0FAA3E0F990001FEF1246
:100C150005A61277C7125945020E23900085E0FB01
:100C2500A3E0FAA3E0F99000111205125403900015
:100C35008CF0A3E4F0900012120512540775F02011
:100C4500A4FF90008CE045F0F0A3E04FF090001376
:100C5500120512FD540825E0FFE433FE90008CE0F8
:100C65004EF0A3E04FF0ED540375F004A4FF90009F
:100C75008CE045F0F0A3E04FF090001412051254FB
:100C85000C1313543FFF90008CE0FEA3E04FFF9040
:100C9500008CEEF0FEA3EFF0D39467EE94034002D0
:100CA500C2089000221206A6FF90008CE0FCA3E08B
:100CB500FD6F7003EC65F09000226005EC8DF0800F
:100CC5001A1206A6FFAEF01268F6900085E0FBA3A7
:100CD500E0FAA3E0F9900022EE8FF0120735020E3C
:100CE50023900085E0FBA3E0FAA3E0F990000F1242
:100CF5000512FF540C25E025E0FE90008BF0EF5423
:100D05000133333354F84EFFF0900010120512549E
:100D15000EC3134F90008BF0D394247480948040BD
:100D250002C208900085E0FBA3E0FAA3E0F9900079
:100D35001C120512FE90008BE0FF6E6002800E1201
:100D450074FE900085E0FBA3E0FAA3E0F990001C97
:100D5500020E1F900085E0FBA3E0FAA3E0F99000E6
:100D65001B120512F4603E90001B74011205619080
:100D7500001B120512540FD39409748094804025EA
:100D8500900085E0FBA3E0FAA3E0F990001B740650
:100D950012056190001B120512D39459748094803A
:100DA500400312007E900085E0FBA3E0FAA3E0F982
:100DB50090000C1205125407C454F0FF90008BF0FC
:100DC50090000D120512540725E04FFF90008BF09F
:100DD50090000E1205125408131313541F4F900060
:100DE5008BF0D39459748094804002C2089000859A
:100DF500E0FBA3E0FAA3E0F990001B120512FE90B8
:100E0500008BE0FF6E6002800E1274FE900085E09C
:100E1500FBA3E0FAA3E0F990001BEF1205A620085A
:100E25001B900085E0FBA3E0FAA3E0F912067B54D2
:0C0E35007FFFE5F08FF012071612007E20
:010E4100228E
:0B2265009000BEEBF0A3EAF0A3E9F04C
:10227000C20B900002120512646670189000BEE056
:10228000FBA3E0FAA3E0F912067B4420FFE5F08F00
:10229000F0120716E590548070169000BEE0FBA384
:1022A000E0FAA3E0F912067B54EFFFE5F00223DB2E
:1022B0009000BEE0FBA3E0FAA3E0F912067BFDACC0
:1022C000F0AE047805CEC313CE13D8F920E0089001
:1022D00000037401120561ECC4F854F0C8EDC45455
:1022E0000F4830E0030223E012067B4410FFE5F0C4
:1022F0008FF01207169000BEE0FBA3E0FAA3E0F90E
:1023000012067BAEF07806CEC313CE13D8F930E0B8
:102310000302239D900002120512FFD3948574805E
:102320009480500AC3EF947B748094805003D380D0
:1023300001C3920B300B09900002E41205A68055F0
:102340009000047401120561900004120512D394E8
:10235000047480948050030223E09000BEE0FBA34D
:10236000E0FAA3E0F912067B54DFFFE5F08FF012EC
:1023700007169000BEE0FBA3E0FAA3E0F912067B8B
:102380004440FFE5F08FF01207169000BEE0FBA37B
:10239000E0FAA3E0F990000474020205A69000BEE2
:1023A000E0FBA3E0FAA3E0F9900002120512FFC3DC
:1023B000947A74809480400AD3EF94067480948059
:1023C0004003D38001C3920B300B159000047402BC
:1023D0001205A612067BFFE5F044018FF0120716E6
:0123E00022DA
:0B383A0090007FEBF0A3EAF0A3E9F0A0
:10384500C20712067BFDACF0AE047806CEC313CEDC
:1038550013D8F920E003023945AE04ED7805CEC34F
:1038650013CE13D8F920E00302394590007FE0FB21
:10387500A3E0FAA3E0F912067B54DFFFE5F08FF031
:1038850012071690007FE0FBA3E0FAA3E0F9120609
:103895007BAEF07807CEC313CE13D8F930E020C045
:1038A50002C001900082E0F9A3E0FAA3E09000884D
:1038B500C9F0A3EAF0A3E9F0D001D0020208FA901A
:1038C500007FE0FBA3E0FAA3E0F9900003120512E4
:1038D500FFD3946174809480400BEF946B74809453
:1038E5008050028001C3920730074390000874019D
:1038F5001205619000081205126402704390007F62
:10390500E0FBA3E0FAA3E0F912067B4480FFE5F0B3
:103915008FF012071690007FE0FBA3E0FAA3E0F911
:10392500900006E41205A69000057403800F900030
:103935007FE0FBA3E0FAA3E0F9900008E41205A6F6
:01394500225F
:10766B0000F40104010C0078005A003C001E0102DA
:01767B00040A
:106E7900C106C184C100C101C102C103410028008A
:046E8900410029009B
:030073000229550A
:0D295500C0E0C083C082C0D075D000C007B4
:10296200300503022A06E58054016006900030E03B
:1029720004F0900030E033F0A3E033F0A3E033F052
:10298200A3E033F0A3E033F0A3E033F0A3E033F0AD
:10299200A3E033F0900033E05408601B900032E073
:1029A20054087013900031E05408700B900030E02E
:1029B20054087003D38001C39203900037E0540897
:1029C200601B900036E054087013900035E0540804
:1029D200600B900034E054087003D38001C392026C
:1029E20030031A30021790006EE004F0E0640260D7
:1029F20003022A7ED205A3F0900028806790006E21
:102A0200E4F08078900028E014F0E0603E64017009
:102A12002CA2809200A200900035E033F0900034A6
:102A2200E033F0900033E033F0900032E033F09086
:102A32000031E033F090006FE004F0803F90002816
:102A4200E064027037A28092018031A200E433FF79
:102A5200E5805401B50712A200300101B3900028AD
:102A6200400280157409F08013A200300101B39076
:0F2A7200002840057407F080037408F053C3FD7B
:0B2A8100D007D0D0D082D083D0E0324C
:1070B000C205E490006EF0900030F0A3F0A3F0A3BE
:1070C000F0A3F0A3F0A3F0A3F075CA0B75CD7C4339
:0670D000CA8043AA04225D
:0E41E300900080EBF0A3EAF0A3E9F0A3EDF06A
:1041F100E4FDFC900084E06C7003A3E06D700302A9
:104201004298900080E0FBA3E0FAA3E0F99000045B
:10421100120512F47002C322E4FCFD900089F090B3
:104221000083E0FF900089E0FEC39F50549000801E
:10423100E0FBA3E0FAA3E0F98E8275830012051278
:104241007B00FAE4F9E9C3940874809480502AEC65
:104251006AFEC3EE64809480ED500E25E0FDEC33E0
:104261006410FCED6421FD800625E0FDEC33FCEBE0
:1042710025E0FBEA33FA0980CC900089E004F08064
:104281009E900080E0FBA3E0FAA3E0F990000474A3
:10429100011205610241F4900080E0FBA3E0FAA362
:1042A100E0F990000412051214FF900086E0FBA3D0
:0A42B100E0FAA3E0F9EF120594D340
:0142BB0022E0
:0E59CC00900080EBF0A3EAF0A3E9F0A3EDF069
:1059DA00E4FDFC900086F0900083E0FF900086E0F2
:1059EA00FEC39F5054900080E0FBA3E0FAA3E0F9C5
:1059FA008E827583001205127B00FAE4F9E9C394DA
:105A0A000874809480502AEC6AFEC3EE6480948005
:105A1A00ED500E25E0FDEC336410FCED6421FD80B1
:105A2A000625E0FDEC33FCEB25E0FBEA33FA0980BE
:105A3A00CC900086E004F0809E900084E0B50407D4
:085A4A00A3E0B50502D322C35D
:015A52002231
:101D2900900071E0FF25E0243EF582E43400F5835C
:101D3900E0FCA3E0D39458EC648094824013EF252F
:101D4900E0243EF582E43400F5837402F0A374596B
:101D5900F0900071E0FF25E0243EF582E43400F5BF
:101D690083E0FCA3E0C39470EC6480947E5013EF8D
:101D790025E0243EF582E43400F58374FEF0A37473
:101D89006FF0900071E090767993FF900029E0F967
:101D99005F6F6003021E86900071E0FF25E0244416
:101DA900F582E43400F583E0FCA3E0FDEF25E024AF
:101DB9003EF582E43400F583E0FEA3E0FFD39DEC19
:101DC9006480F8EE6480984014900071E025E02466
:101DD90044F582E43400F583EEF0A3EFF09000714E
:101DE900E0FF25E0244AF582E43400F583E0FCA312
:101DF900E0FDEF25E0243EF582E43400F583E0FEC2
:101E0900A3E0FFC39DEC6480F8EE648098501490C1
:101E19000071E025E0244AF582E43400F583EEF010
:101E2900A3EFF0900071E0FF2465F582E43400F53A
:101E390083E0FE74622FF582E43400F583E0FFD37A
:101E49009E400F900071E02465F582E43400F5832B
:101E5900EFF0900071E0FF2468F582E43400F58327
:101E6900E0FE74622FF582E43400F583E0FFC39E3F
:101E79004003021F0B900071E02468807C90007180
:101E8900E0FD9076799349900029F0ED25E0243E14
:101E9900F582E43400F583E0FEA3E0FF900071E0F1
:101EA90025E02444F582E43400F583EEF0A3EFF055
:101EB900ED25E0243EF582E43400F583E0FEA3E05D
:101EC900FFED25E0244AF582E43400F583EEF0A322
:101ED900EFF074622DF582E43400F583E0FF746558
:101EE9002DF582E43400F583EFF074622DF582E478
:101EF9003400F583E0FF74682DF582E43400F5833E
:021F0900EFF0F7
:011F0B0022B3
:105AD500900071E025E0243EF582E43400F583E092
:105AE500FEA3E0FF126836900071E0FD25E024502A
:105AF500F582E43400F583EEF0A3EFF0ED25E02424
:105B050044F582E43400F583E0FEA3E0FF12683635
:105B1500900071E0FD25E02456F582E43400F5831C
:105B2500EEF0A3EFF0ED25E0244AF582E43400F52C
:105B350083E0FEA3E0FF126836900071E025E024C3
:0E5B45005CF582E43400F583EEF0A3EFF0226D
:1060660090006BE07002A3E06030900033E0548053
:106076006028EF25E02471F582E43476F583E49315
:10608600FE740193FF900071E025E02472F582E42E
:106096003400F583EEF0A3EFF022900071E0FF25C7
:1060A600E0246BF582E43476F583E493FC74019383
:1060B600FDEF25E02472F582E43400F583ECF0A3CD
:0360C600EDF022D8
:10255500C208900031E0FF5470C4540F900071F030
:10256500D3940274809480400122EF5403FE9000BE
:1025750032E0FDEDFF90007CEEF0A3EFF0D394E8A0
:10258500EE6480948340012290007DE02470F090F9
:10259500007CE034FEF0900033E0547FFF90007E35
:1025A500F0C3941474809480400AD3EF94637480CC
:1025B50094804003D38001C39208300802C322905F
:1025C5000034E0FEA3E0FDEDFF900079EEF0A3EF0F
:1025D500F0900031E090007FF090006BE07002A376
:1025E500E06009900070E07003D38001C392083069
:1025F500083F900033E054806066E4A3F0900079D2
:10260500E0FFA3E0900084CFF0A3EFF0900071E02D
:102615002438F9E43400FA9000867401F0A3EAF056
:10262500A3E9F07B017A0079317D041241E3403062
:1026350022900071E02438F582E43400F583E090BF
:102645000034F07B017A007931900079E0FFA3E056
:10265500900084CFF0A3EFF07D041259CC40012205
:1026650090007FE0FF540C1313543F90007BF0EF74
:102675005480FF900071E0FE243BF582E43400F5C0
:1026850083EFF090007CE0FCA3E0FDEE25E0243E26
:10269500F582E43400F583ECF0A3EDF090007EE0E4
:1026A500FF900071E02462F582E43400F583EFF0D9
:0F26B500121D29125AD590007BE0FF126066D3E8
:0126C40022F3
:1054A8001277EA900079EBF0A3EAF0A3E9F012048E
:1054B800F9FFC313540164017049900079E0FBA31C
:1054C800E0FAA3E0F9900001120512640170691274
:1054D8006CE2501C12772153CA7F1277159000791D
:1054E800E0FBA3E0FAA3E0F990000274051205A618
:1054F800900079E0FBA3E0FAA3E0F91204F954FB69
:10550800020594900079E0FBA3E0FAA3E0F990008B
:1055180002120512640170201273F8121752C2AFFA
:10552800127715D2AF900079E0FBA3E0FAA3E0F977
:0855380090000274051205A6A3
:015540002248
:105F3600C20730056090006FE064287058C205F013
:105F460053CA7F1225554002804890006BE07002CC
:105F5600A3E070028039900070E0FF6014A3E09027
:105F6600767993F4FEEF5E900070F07002802080E8
:105F76002190003AE0F46011900039E0F4600A9054
:105F86000038E0F46003D38001C3920730070302B0
:055F960077211270B03C
:015F9B0022E3
:0777B2007B017A0079382207
:10737400EF6401700A90003874FFF0A3F0A3F0D218
:0B7384000690006BE4F0A374F0F02210
:0A772100C206E490006BF0A3F02212
:09775B0090006BE0FEA3E0FF22A8
:0678340090006DE0FF2250
:1069EB00EF25E0243EF582E43400F583E0FCA3E0E0
:1069FB00FDEF25E02444F582E43400F583ECF0A3AD
:106A0B00EDF074622FF582E43400F583E0FE7465DB
:0B6A1B002FF582E43400F583EEF0223A
:106A2600EF25E0243EF582E43400F583E0FCA3E0A4
:106A3600FDEF25E0244AF582E43400F583ECF0A36B
:106A4600EDF074622FF582E43400F583E0FE74689D
:0B6A56002FF582E43400F583EEF022FF
:102F4B0090006BE07002A3E0601790006CE024FF30
:102F5B00F090006BE034FFF0E07002A3E07002C26F
:102F6B000690006DE0600714F0E07002C2067B0271
:102F7B00EBF4607BEB25E02472F582E43400F583FF
:102F8B00E0FCA3E04C6065EB25E02472F582E434B1
:102F9B0000F58374FFF5F0120665EB25E02472F55E
:102FAB0082E43400F583E0FCA3E0FD64014C701473
:102FBB0090006BE07002A3E07032D20690006D744B
:102FCB0003F08028ED4C7024EB25E0246BF582E4B4
:102FDB003476F583E493FC740193FDEB25E02472C6
:102FEB00F582E43400F583ECF0A3EDF01B80812037
:102FFB00045E7B02EBF4606EEB25E0242AF582E4A1
:10300B003400F583E0FCA3E04C6042EB25E0242A7E
:10301B00F582E43400F58374FFF5F0120665EB25B9
:10302B00E0242AF582E43400F583E0FCA3E04C7045
:10303B001CD20690006BF0A374F0F0900070E0FED1
:10304B00A3E090767993FDEE4D900070F01B80A479
:10305B00900071E025E0242AF582E43400F58374B6
:06306B0010F0A37468F0F0
:01307100223C
:1067260030064112778F1270B012787640051278D3
:106736004C50221278765011C20912785E122F4BF5
:10674600127293126001121752127787126C80121E
:1067560060C91254A8125F362006CE12779653CA25
:056766007F53AAFB2295
:104CE700B4FEB266AFCBAD1AAA74A7A8A4EEA21DF4
:104CF7009F4F9C3C997696AD93B490B28DBD8ACA6E
:104D070087C884DD81F17EE97BFE79177633735896
:104D1700707F6DA86AE36821657262CB60195D9543
:104D27005B015889561753BA51724EF14CF24A82B9
:104D3700486B464F4444424F404E3E653C943ACC04
:104D47003911375835B63420328F310A2F8D2E203E
:104D57002CC62B622A1B28D827A126732551243756
:104D67002324221B211C202B1F321E511D6AEC28D5
:104D7700E123DEEDC733AD609419800767BB52149A
:104D870044623EA5355B32B130602D212B8A291252
:066E8D00C112C110C11189
:0845FE0090007FEEF0A3EFF046
:1046060090008274FFF0A3749CF0E4900081F09017
:104616000081E0FFC39446748094805036EF25E015
:1046260024E7F582E4344CF583E493FE740193FFAA
:10463600D3900080E09F90007FE09E50169000830C
:10464600E0240AF0900082E03400F0900081E0045B
:10465600F080BC900081E0FF25E024E7F582E43499
:104666004CF583E493FC740193FDEF25E024E5F516
:1046760082E4344CF583C37401939DFFE4939CFE5E
:104686007C007D0A1205DA900081E025E024E7F53A
:1046960082E4344CF583E493FC740193FD90007F2F
:1046A600E0FAA3E0C39DFDEA9CFCCFCDCFCECCCEF5
:1046B6001205DAC3900083E09FFF900082E09EFE21
:0446C600F0A3EFF07E
:0146CA0022CD
:104C2B0090007FE4F0A374C8F0E4FDEDC39410741E
:104C3B008094805027ED25E02475F582E4344DF502
:104C4B0083C37401939FE4939E4011900080E024F2
:104C5B0032F090007FE03400F00D80CFED25E024A2
:104C6B0075F582E4344DF583E493FA740193FBC339
:104C7B00EF9BFFEE9A90007DF0A3EFF0ED25E02483
:104C8B0075F582E4344DF583E493FE740193FFEDE7
:104C9B0025E02473F582E4344DF583C37401939FAF
:104CAB00FFE4939EFE7C007D051205DAAC06AD0792
:104CBB0090007DE0FEA3E0FF1205DA7C007D0A1276
:104CCB0005C890007DEEF0A3EFF0C3900080E09F4D
:0B4CDB00FF90007FE09EFEF0A3EFF0D2
:014CE60022AB
:0A772B00E490016DF0A3F0A3F0223A
:10748E0090016DE004F0E0C3943C7480948040065B
:07749E00E4F0A37402F022E8
:10394600C3904CE77401939FE4939E500590007DCD
:103956008041D3904D737401939FE4939E400280FF
:10396600151245FE90007DEEF0A3EFF0D39458EECD
:1039760064809482400C90007D7402F0A37462F01F
:103986008018C390007EE0949C90007DE064809453
:103996007F500774FFF0A37492F030104890015DD9
:1039A600E0FEA3E0FF90007DE0FCA3E0FDD39FEEE8
:1039B6006480F8EC648098400A90015DECF0A3ED19
:1039C600F0803A90015FE0FEA3E0FFC3ED9FEE6456
:1039D60080F8EC648098502590007DE0FFA3E0908D
:1039E600015FCF8014D21090007DE0FEA3E0FF902F
:1039F600015DEEF0A3EFF0A3EEF0A3EFF090007DF3
:103A0600E0FEA3E0FF90015BEEF0A3EFF012683654
:103A1600900161EEF0A3EFF090015DE0FEA3E0FF00
:103A2600126836900163EEF0A3EFF090015FE0FEBE
:0E3A3600A3E0FF126836900165EEF0A3EFF0FA
:013A4400225F
:10579600E490007DF0A3F053C3FB75BA1775BF61A3
:1057A60075BEA743BA8053AAF75391EF5391DF43CF
:1057B6009140D28EE588541060FAE588541060FA5C
:1057C600C28EE5C354046404603DE588541070FA43
:1057D600E588541070FA439110C28C00000000E571
:1057E600C354046404602090007EE004F0700690C8
:1057F600007DE004F012784C400D1278764008E502
:10580600C35404640470A243911043912043914011
:10581600C28CC28DC28E53BA7F90007DE0FEA3E09B
